:100000000C9435000C945D000C945D000C945D0024
:100010000C945D000C945D000C945D000C945D00EC
:100020000C945D000C945D000C945D000C945D00DC
:100030000C945D000C945D000C945D000C945D00CC
:100040000C9438020C945D000C9406020C94E001B0
:100050000C945D000C945D000C945D000C945D00AC
:100060000C945D000C945D00370311241FBECFEF8C
:10007000D8E0DEBFCDBF11E0A0E0B1E0E8EDF6E0F2
:1000800002C005900D92A83EB107D9F722E0A8EE74
:10009000B1E001C01D92AE38B207E1F710E0C5E350
:1000A000D0E004C02197FE010E946403C433D1074D
:1000B000C9F70E9482020C946A030C940000AF926C
:1000C000BF92CF92DF92EF92FF920F931F93CF9345
:1000D000DF936C017B018B01040F151FEB015E01A7
:1000E000AE18BF08C017D10759F06991D601ED913C
:1000F000FC910190F081E02DC6010995892B79F7DB
:10010000C501DF91CF911F910F91FF90EF90DF908C
:10011000CF90BF90AF900895FC01538D448D252F53
:1001200030E0842F90E0821B930B541710F0CF9691
:10013000089501970895FC01918D828D981761F0C3
:10014000A28DAE0FBF2FB11D5D968C91928D9F5FDA
:100150009F73928F90E008958FEF9FEF0895FC01B9
:10016000918D828D981731F0828DE80FF11D858D6C
:1001700090E008958FEF9FEF0895FC01918D228DFF
:10018000892F90E0805C9F4F821B91098F73992784
:10019000089581EF91E00E94BD0021E0892B09F4D0
:1001A00020E0822F089580E090E0892B29F00E94C2
:1001B000C90081110C9400000895FC01A48DA80FC2
:1001C000B92FB11DA35ABF4F2C91848D90E0019699
:1001D0008F739927848FA689B7892C93A089B189B9
:1001E0008C91837080648C93938D848D981306C05A
:1001F0000288F389E02D80818F7D80830895EF92BE
:10020000FF920F931F93CF93DF93EC0181E0888FD0
:100210009B8D8C8D98131AC0E889F989808185FFA0
:1002200015C09FB7F894EE89FF896083E889F98942
:1002300080818370806480839FBF81E090E0DF9144
:10024000CF911F910F91FF90EF900895F62E0B8D97
:1002500010E00F5F1F4F0F731127E02E8C8D8E1152
:100260000CC00FB607FCFACFE889F989808185FFB9
:10027000F5CFCE010E94DD00F1CFEB8DEC0FFD2F0D
:10028000F11DE35AFF4FF0829FB7F8940B8FEA8974
:10029000FB8980818062CFCFCF93DF93EC01888D83
:1002A0008823B9F0AA89BB89E889F9898C9185FDF1
:1002B00003C0808186FD0DC00FB607FCF7CF8C917F
:1002C00085FFF2CF808185FFEDCFCE010E94DD005A
:1002D000E9CFDF91CF9108953FB7F8948091ED0178
:1002E0009091EE01A091EF01B091F00126B5A89B8D
:1002F00005C02F3F19F00196A11DB11D3FBFBA2FB8
:10030000A92F982F8827BC01CD01620F711D811D77
:10031000911D42E0660F771F881F991F4A95D1F7FC
:1003200008958F929F92AF92BF92CF92DF92EF92F9
:10033000FF924B015C010E946C016B017C010E94E9
:100340006C016C197D098E099F09683E7340810517
:100350009105A8F321E0821A9108A108B10888EE5E
:10036000C80E83E0D81EE11CF11C81149104A10485
:10037000B10429F7FF90EF90DF90CF90BF90AF903E
:100380009F908F900895CF93DF93FC010190002000
:10039000E9F73197AF01481B590BBC0181EF91E0A0
:1003A0000E945F00EC0142E050E062E171E081EF09
:1003B00091E00E945F008C0F9D1FDF91CF91089507
:1003C0001F920F920FB60F9211242F933F934F93CA
:1003D0005F936F937F938F939F93AF93BF93EF93AD
:1003E000FF9381EF91E00E94DD00FF91EF91BF91BB
:1003F000AF919F918F917F916F915F914F913F91BD
:100400002F910F900FBE0F901F9018951F920F9273
:100410000FB60F9211242F938F939F93EF93FF9317
:10042000E0910102F09102028081E0910702F091D7
:10043000080282FD1BC0908180910A028F5F8F733A
:1004400020910B02821741F0E0910A02F0E0EF5098
:10045000FE4F958F80930A02FF91EF919F918F91AC
:100460002F910F900FBE0F901F9018958081F4CFA1
:100470001F920F920FB60F9211242F933F938F93D9
:100480009F93AF93BF938091E9019091EA01A0916E
:10049000EB01B091EC013091E80123E0230F2D37FF
:1004A00058F50196A11DB11D2093E8018093E90143
:1004B0009093EA01A093EB01B093EC018091ED01E0
:1004C0009091EE01A091EF01B091F0010196A11D74
:1004D000B11D8093ED019093EE01A093EF01B093D5
:1004E000F001BF91AF919F918F913F912F910F900C
:1004F0000FBE0F901F90189526E8230F0296A11D9E
:10050000B11DD2CF789484B5826084BD84B58160FA
:1005100084BD85B5826085BD85B5816085BD8091CE
:100520006E00816080936E00109281008091810046
:10053000826080938100809181008160809381003E
:10054000809180008160809380008091B100846000
:100550008093B1008091B00081608093B000809161
:100560007A00846080937A0080917A008260809320
:100570007A0080917A00816080937A0080917A007D
:10058000806880937A001092C100E0910102F0919E
:10059000020282E08083E091FD01F091FE01108271
:1005A000E091FF01F09100028FEC8083109209022C
:1005B000E0910502F091060286E08083E09103025B
:1005C000F0910402808180618083E0910302F091C8
:1005D0000402808188608083E0910302F09104022C
:1005E000808180688083E0910302F0910402808121
:1005F0008F7D808385E191E00E94C30160E073EA12
:1006000081EE91E10E9491018EE291E00E94C3018E
:1006100084E491E00E94C30180E691E00E94C3015E
:1006200060E072EC8BEE9BE00E94910181E891E02A
:100630000E94C30186E991E00E94C30160E071EE6F
:1006400085EF95E00E9491018EEA91E00E94C3013E
:1006500089EC91E00E94C301C0E0D0E02097F1F363
:100660000E94C9008823D1F30E940000F7CFE1EF78
:10067000F1E01382128288EE93E0A0E0B0E0848380
:100680009583A683B78384E091E09183808385EC92
:1006900090E09587848784EC90E09787868780EC4C
:1006A00090E0918B808B81EC90E0938B828B82EC3D
:1006B00090E0958B848B86EC90E0978B868B118EE7
:1006C000128E138E148E0895EE0FFF1F0590F49175
:0806D000E02D0994F894FFCF1E
:1006D80000000000FF005F008C004C01BD009B0083
:1006E800AF000D0A00496E697469616C697A696EB8
:1006F800672068617264776172652E2E2E004861EA
:1007080072647761726520696E697469616C697A6F
:1007180065642E0048617264776172654465766924
:10072800636520696E697469616C697A65642E0015
:10073800506572666F726D696E6720686172647762
:10074800617265206F7065726174696F6E2E2E2EEE
:10075800004F7065726174696F6E20636F6D706CA5
:10076800657465642E00436C65616E696E672075FB
:10077800702068617264776172652E2E2E00486160
:1007880072647761726520636C65616E7570206351
:100798006F6D706C6574652E004861726477617264
:1007A80065446576696365207368757474696E67F6
:0807B80020646F776E2E000033
:00000001FF
